:020000040800F2
:10000000700A002065020008A3020008A50200088B
:10001000A7020008A9020008AB02000800000000C7
:10002000000000000000000000000000AD02000819
:10003000AF02000800000000B1020008B30200088F
:10004000B5020008B5020008B5020008B5020008B4
:10005000B5020008B5020008B5020008B5020008A4
:10006000B5020008B5020008B5020008B502000894
:10007000B5020008B5020008B5020008B502000884
:10008000B5020008B5020008B5020008B502000874
:10009000B5020008B5020008B5020008B502000864
:1000A000B5020008B5020008B5020008B502000854
:1000B000B5020008B5020008B502000855060008A0
:1000C00051060008B5020008B5020008B502000894
:1000D000B5020008B5020008B5020008B502000824
:1000E000B5020008B5020008B5020008B502000814
:1000F000B5020008B5020008B5020008B502000804
:10010000B5020008B5020008B5020008B5020008F3
:10011000B5020008B5020008B5020008B5020008E3
:10012000B5020008B5020008B5020008B5020008D3
:10013000B5020008B5020008B5020008B5020008C3
:10014000B5020008B5020008B5020008B5020008B3
:10015000B5020008B5020008B5020008B5020008A3
:10016000B5020008B5020008B5020008B502000893
:10017000B5020008B5020008B50200080000000042
:10018000B5020008B502000800F002F800F05AF8C5
:1001900014A696E8000CB244B344DA4501D100F04D
:1001A00051F8BAE80F000FA696E83000A5EB040559
:1001B00004EB0607AAEB0704A7F101074FEA1515A0
:1001C0004FEA3414A4F10104AC4201D300F03AF830
:1001D00013F0010F18BFFB1A43F0010300F001F800
:1001E000DBE71847B00E0000D00E0000103A24BF25
:1001F00078C878C1FAD8520724BF30C830C144BF8C
:1002000004680C6070470000704700000023002461
:1002100000250026103A28BF78C1FBD8520728BF16
:1002200030C148BF0B607047642900F08B80732990
:1002300000F09E81002070471FB500F01DFF1FBD1C
:1002400010B510BD00F0CEF91146FFF7F5FF00F034
:1002500091FB00F0ECF903B4FFF7F2FF03BC00F0F0
:10026000EFF9000017481849184B99423CBF50F865
:10027000042B41F8042BF8D3154B16494FF000021C
:100280008B4238BF43F8042BFAD3DFF84C000168E7
:1002900041F470010160BFF34F8FBFF36F8F0F48C0
:1002A0000047FEE7FEE7FEE7FEE7FEE7FEE7FEE7C4
:1002B000FEE7FEE7FEE7000009480A490A4A0B4B41
:1002C00070470000B810000800000020080000205F
:1002D00008000020700A002088ED00E08901000875
:1002E00070040020700A00207006002070060020B4
:1002F00070B50C460546012A05D02878800600D541
:10030000EA69002302E0012305E05B1C934202D26C
:10031000E05C0028F9D1A869E618C01AA861286A2B
:10032000184428622846AFF3008004E0D5E9012193
:1003300014F8010B9047B442F8D32846AFF300807D
:1003400070BD00002DE9F0410646002410687529B3
:10035000314616A510D0AFF30080002802DA4042E3
:1003600013A507E031688A0701D512A502E0490705
:1003700004D511A5012401E0AFF3008000210A2279
:1003800006F1240709E0B0FBF2FCB0FBF2F302FB3C
:100390001C00303078541846491C0028F3D12346FD
:1003A0002A463046BDE8F04100F077B80000000072
:1003B0002D0000002B00000020000000032A40F266
:1003C000308010F0030C00F0158011F8013BBCF1F7
:1003D000020F624498BF11F801CB00F8013B38BF0F
:1003E00011F8013BA2F1040298BF00F801CB38BF1D
:1003F00000F8013B11F0030300F0BE80083AC0F0A2
:10040000088051F8043B083A51F804CBA0E80810E2
:10041000F5E7121D5CBF51F8043B40F8043BAFF315
:100420000080D20724BF11F8013B11F801CB48BF6F
:1004300011F8012B24BF00F8013B00F801CB48BFA5
:1004400000F8012B70474FF0000200B513469446A8
:100450009646203922BFA0E80C50A0E80C50B1F11C
:100460002001BFF4F7AF090728BFA0E80C5048BF30
:100470000CC05DF804EB890028BF40F8042B08BFCE
:10048000704748BF20F8022B11F0804F18BF00F8CA
:10049000012B70477047704770472DE9F0470D46B4
:1004A00099469246044600F124080168880604D55E
:1004B000E06921F01001216000E00120A84201DD87
:1004C000471B00E00027A1697A1902EB0900081A0E
:1004D000A0612078C00602D42046AFF30080002639
:1004E00008E0D4E901211AF806009047206A401C70
:1004F000761C20624E45F4DB2078C0060AD52046E3
:10050000AFF3008006E0D4E9012130209047206A53
:10051000401C2062381EA7F10107F4DC07E0D4E993
:10052000012118F805009047206A401C2062281E0F
:10053000A5F10105F3DC2046AFF30080207800062A
:1005400002D50220BDE8F0870120FBE710B5436922
:1005500013B1AFF3008001E0FFF7CAFE012010BD28
:10056000127800F124010A7000224A700122EDE79E
:1005700011684FF0FF32E9E710B5203AC0F00B8068
:10058000B1E81850A0E81850B1E81850A0E8185089
:10059000203ABFF4F5AF5FEA027C24BFB1E81850FF
:1005A000A0E8185044BF18C918C0BDE810405FEA61
:1005B000827C24BF51F8043B40F8043B08BF7047DD
:1005C000D20728BF31F8023B48BF11F8012B28BFE2
:1005D00020F8023B48BF00F8012B704700487047E5
:1005E000080000207546FFF7F9FFAE460500694692
:1005F000534620F00700854618B020B5FFF75CFE93
:10060000BDE820404FF000064FF000074FF0000813
:100610004FF0000BAC46ACE8C009ACE8C009ACE850
:10062000C009ACE8C00921F007018D46704710B53C
:100630000446AFF300802046BDE81040FFF70BBE34
:1006400001491820ABBEFEE72600020070470000FB
:10065000704700007047000041F24C00C4F20200F5
:10066000016841F00201016040F20040C4F6000060
:10067000016800210160026842F420220260426A9F
:100680004162426A42F0440242628268816082684A
:1006900042F420228260C268C160C16841F4A02196
:1006A000C160416841F440714160704710B545F246
:1006B0000041C4F2000188421DD045F60041C4F259
:1006C000000188420ED045F60001C4F200018842C4
:1006D0002ED16FF4800C4FF4804E6FF440414FF4F4
:1006E000800310E06FF4000C4FF4803E6FF4403153
:1006F0004FF4000307E06FF4001C4FF4805E6FF4CA
:1007000040514FF4001341F23802C4F20202146A5D
:100710001C431462146D21401165116D41EA0E01F4
:100720001165116819431160116801EA0C0111602B
:10073000016821F001010160016821F4805101602C
:10074000016821F470610160016841F0800101607D
:1007500000210161016921F070410161016941F0ED
:10076000E0410161016941F00E010161016941F45B
:1007700060610161016941F480110161016941F425
:1007800000310161816821F40041816048F2520129
:100790008160016821F400310160816821F4004129
:1007A0008160416821F400614160416841F000715D
:1007B0004160416841F400414160016841F001013C
:1007C000016010BD002A4FF0FF0C18BF002B03D1B1
:1007D0004FFA8CF0704700BFD0F818C05FEA0C4C9D
:1007E000FAD480B5D0F804C049F6000ECFF6004E1A
:1007F0000CEA0E0C41EA0341614401F500514160ED
:10080000BDE8804063B14FF0000C00BF8169C907AB
:10081000FCD012F80C100CF1010C9C458162F5D152
:10082000816949065CBF81695FEAC161F8D5816968
:10083000C90642BF4FF0FF0C4FFA8CF07047416879
:1008400041F48041416000BF81698906FCD54FF0C9
:10085000000C4FFA8CF0704742F20001C4F2020122
:10086000086820F0070008600A6841F2000042F0C2
:100870000202C4F202000A60016841F48071016062
:1008800001684905FCD5416821F0F8514160416893
:1008900041F080514160016821F08071016000BF2A
:1008A00001688901FCD4C168142221F00301C160F0
:1008B000C16841F00201C160C16862F30E21C160EC
:1008C000C168012262F30611C160C16821F0C061F4
:1008D000C160C16841F08071C160016841F0807100
:1008E000016000BF01688901FCD5816821F0030126
:1008F0008160816841F00301816000BF816801F07F
:100900000C010C29FAD1816821F0F0018160816825
:1009100021F4E0618160816821F4605181600168A7
:1009200021F08061016000BF01684901FCD40169C8
:1009300021F4FE410161016941F4C0510161016985
:1009400041F400310161016941F4803101610168C4
:1009500041F08061016000BF01684901FCD5D0F819
:10096000881021F44001C0F88810016E41F4001194
:100970000166704782B040F2004441F2580541F2EE
:10098000004640F2344940F2180AC4F60004C4F2AA
:100990000205C4F20006C4F20009C4F2000AFFF71F
:1009A0005BFFFFF759FE06F58040FFF77FFE00F082
:1009B000A9F902200021002700F004FB55F80C0CD7
:1009C0004FF0904140F0030045F80C0C086840F6E9
:1009D0000C42904308600A6840F6080C42EA0C0298
:1009E0000A604FF62042CFF6FF72A3584FF6144E1E
:1009F00043F01013A3500B68CFF6FF7E23F470432F
:100A00000B600B6840F22C6843F420430B60A35842
:100A100046F2600043F00853A3500A6849F6364B8B
:100A200022F040520A600A6842F080520A600A6866
:100A300022F040420A600A6842F080420A600A6876
:100A400022F040620A600A6842F080620A6054F84C
:100A50000E1040F2E73221F4005144F80E102968DC
:100A600041F001012960CAF81080CAF81420CAF8C0
:100A70001C70CAF82070DAF800300343CAF800305E
:100A8000DAF8003043EA0C03CAF80030DAF808302C
:100A900043F01103CAF80830DAF8083043F02203B3
:100AA000CAF80830DAF82C3043F40043CAF82C3086
:100AB0004FF08043196841F001011960296841F045
:100AC00002012960CAF8108449F8082CC9F800709E
:100AD000C9F80470DAF8001440F204020843CAF8B6
:100AE0000004DAF80004C2F2000240EA0C00CAF87E
:100AF0000004DAF8080443F2C92140F01100CAF8F2
:100B00000804DAF8080443F2C82C40F02200CAF8BE
:100B10000804D9F8100040F40040C9F81000DAF8D1
:100B2000E8034FF0010940F00100CAF8E80300BFF4
:100B30001068019011E000BF0022E24588BF012249
:100B400054F80E00E0454FF0000388BF012320F465
:100B500000509A4244F80E0068D1626922F40042C3
:100B60006261226822F040422260226842F08042A4
:100B70002260626942F4004262612A6842F0200207
:100B80002A60326822F00102326037617762C6F86B
:100B900028B0C6F82C90326842F00102326000BFE3
:100BA0003269D207FCD022684FF0FF3A22F040426F
:100BB000226000BF22690AF1010A120401D58A45A8
:100BC000F8D3626922F400526261226822F0406226
:100BD0002260226842F080622260626942F4005220
:100BE00062612A6842F020022A60326822F0010223
:100BF000326037617762C6F828B0C6F82C90326848
:100C000042F00102326000BF3269D207FCD0226894
:100C10004FF0FF3822F04062226000BF226908F1E5
:100C20000108920488D58845F8D385E740F204028C
:100C3000E245C2F2000298BF884504D30220E24593
:100C400088BF01201060106801281BD002284DD1F8
:100C500040F20000C2F2000000681823424202EA9B
:100C6000E07220EAE070C4F20003DA61186240F238
:100C70003440C4F2000000F1040A4FF400486FF45D
:100C8000804221E040F20000C2F200000068002330
:100C900000F11E086FF01D0210F11E0FBCBF131AE9
:100CA0004FF0000840F234401822C4F20000C4F2B1
:100CB00000020360C0F8048002F11C0002F1200A67
:100CC0004FF480486FF400420760CAF8007054F88F
:100CD0000E00104044F80E0054F80E0040F20402DA
:100CE00040EA0800C2F2000244F80E001068019BBE
:100CF00083423FF41DAF54F80E0040F4005044F816
:100D00000E0015E7F0B583B000250195019948F272
:100D1000A060C0F20100814206D200BF01990131FA
:100D2000019101998142F9D345F2004440F26C06E9
:100D30004FF42E40C4F20004C2F20006ADF80A00DF
:100D40000DF10A022046782102233570FFF73AFDA3
:100D50004FF400570DF10A02204678210223ADF826
:100D60000A70FFF72FFD0DF10A02204678210223B9
:100D7000ADF80A50FFF726FD4FF43040ADF80A00F9
:100D80000DF10A02204678210223FFF71BFD4FF4E4
:100D90004840ADF80A000DF10A02204678210223EE
:100DA000FFF710FD0DF10A02204678210223ADF86D
:100DB0000A50FFF707FD4FF48050ADF80A000DF11F
:100DC0000A02204678210223FFF7FCFC4FF4804002
:100DD000ADF80A000DF10A02204678210223FFF740
:100DE000F1FC4FF40140ADF80A000DF10A02204673
:100DF00078210223FFF7E6FC4FF47F40ADF80A00AC
:100E00000DF10A02204678210223FFF7DBFC4FF4A4
:100E10002140ADF80A000DF10A0220467821022394
:100E2000FFF7D0FC4FF42640ADF80A000DF10A029E
:100E3000204678210223FFF7C5FC4FF42840ADF887
:100E40000A000DF10A02204678210223FFF7BAFCBE
:100E50004FF47C50ADF80A000DF10A0220467821CB
:100E60000223FFF7AFFC4FF42440ADF80A000DF168
:100E70000A02204678210223FFF7A4FC4FF45340D6
:100E8000ADF80A000DF10A02204678210223FFF78F
:100E900099FC0DF10A02204678210223ADF80A5090
:100EA000FFF790FC4FF45540ADF80A000DF10A022F
:100EB000204678210223FFF785FC4FF47040ADF8FF
:100EC0000A000DF10A02204678210223FFF77AFC7E
:100ED0004FF45940ADF80A000DF10A02204678217E
:100EE0000223FFF76FFC4FF40850ADF80A000DF134
:100EF0000A02204678210223FFF764FC4FF45A408F
:100F0000ADF80A000DF10A02204678210223FFF70E
:100F100059FC4FF49050ADF80A000DF10A0220463A
:100F200078210223FFF74EFC4FF45B40ADF80A0036
:100F30000DF10A02204678210223FFF743FC0DF150
:100F40000A02204678210223ADF80A70FFF73AFC26
:100F50004FF40D40ADF80A000DF10A022046782149
:100F60000223FFF72FFC4FF4A050ADF80A000DF15B
:100F70000A02204678210223FFF724FC012030706A
:100F80004FF42F40ADF80A000DF10A0220467821F7
:100F90000223FFF717FC40F27000C2F200004FF48A
:100FA0008061FFF750FA00F019F840F26800C2F2D1
:100FB0000000058040F26A00C2F20000058003B024
:100FC000F0BD000040F26802C2F20002108040F260
:100FD0006A00C2F200000180704700002DE9F04F66
:100FE000ADF2044D40F2700045F20044C2F2000040
:100FF0000DF10306C4F20004A0F1800506F1010B17
:101000004FF000084FF480594FF0400A002700BF0E
:1010100047F0B0008DF804002046782132460223C4
:101020008DF80380FFF7CEFB20467821324602235D
:10103000ADF80380FFF7C6FB204678213246022335
:10104000ADF80390FFF7BEFB803558462946802255
:101050008DF803A0FFF7B2F92046782132468123AC
:10106000FFF7B0FB0137082FD2D10DF2044D00F08D
:1010700000B830BCBDE8C08FF1EE100A4FF6FF712A
:10108000C0F2C03120EA010040F04070E1EE100AE9
:1010900070470000B81000080000002008000000A1
:1010A000EC010008C010000808000020680A0000D9
:1010B0000C02000800000000F40100000100000024
:040000050800018965
:00000001FF
