:020000040800F2
:100000006006002039020008770200087902000823
:100010007B0200087D0200087F020008000000004B
:100020000000000000000000000000008102000845
:100030008302000800000000850200088702000813
:100040008902000889020008890200088902000864
:100050008902000889020008890200088902000854
:100060008902000889020008890200088902000844
:100070008902000889020008890200088902000834
:100080008902000889020008890200088902000824
:100090008902000889020008890200088902000814
:1000A0008902000889020008890200088902000804
:1000B0008902000889020008890200084503000837
:1000C000410300088902000889020008890200082B
:1000D00089020008890200088902000889020008D4
:1000E00089020008890200088902000889020008C4
:1000F00089020008890200088902000889020008B4
:1001000089020008890200088902000889020008A3
:100110008902000889020008890200088902000893
:100120008902000889020008890200088902000883
:100130008902000889020008890200088902000873
:100140008902000889020008890200088902000863
:100150008902000889020008890200088902000853
:100160008902000889020008890200088902000843
:1001700089020008890200088902000800000000C6
:10018000890200088902000800F002F800F044F833
:1001900014A696E8000CB244B344DA4501D100F04D
:1001A0003BF8BAE80F000FA696E83000A5EB04056F
:1001B00004EB0607AAEB0704A7F101074FEA1515A0
:1001C0004FEA3414A4F10104AC4201D300F024F846
:1001D00013F0010F18BFFB1A43F0010300F001F800
:1001E000DBE71847BC040000CC04000070470000A7
:1001F0000023002400250026103A28BF78C1FBD830
:10020000520728BF30C148BF0B6070471FB500F0D0
:100210003AFA1FBD10B510BD00F05CF81146FFF7AB
:10022000F5FF00F091F800F07AF803B4FFF7F2FF61
:1002300003BC00F07DF8000017481849184B99429C
:100240003CBF50F8042B41F8042BF8D3154B16494A
:100250004FF000028B4238BF43F8042BFAD3DFF88B
:100260004C00016841F470010160BFF34F8FBFF390
:100270006F8F0F480047FEE7FEE7FEE7FEE7FEE769
:10028000FEE7FEE7FEE7FEE7FEE7000009480A4951
:100290000A4A0B4B70470000B0060008000000201F
:1002A00000000020000000206006002088ED00E033
:1002B0008901000860000020600600206002002024
:1002C0006002002070477047704700000048704788
:1002D000000000207546FFF7F9FFAE4605006946AD
:1002E000534620F00700854618B020B5FFF7CEFF33
:1002F000BDE820404FF000064FF000074FF0000827
:100300004FF0000BAC46ACE8C009ACE8C009ACE863
:10031000C009ACE8C00921F007018D46704710B54F
:100320000446AFF300802046BDE81040FFF77DBFD4
:1003300001491820ABBEFEE726000200704700000E
:10034000704700007047000041F25808C4F20208EC
:1003500058F80C0C4FF0904140F0010048F80C0C9C
:10036000086840F60C42904308600A6840F60800AE
:1003700002430A602022C4F600021368002543F0FD
:10038000101313600B6846F2600623F470430B6091
:100390000B6843F420430B60116840F2E73341F0EF
:1003A00008511160D8F800104F2241F00101C8F83F
:1003B00000101821C4F200010A614B61CD610D6289
:1003C0000F6837430F600F6807430F608F6847F06F
:1003D00011078F608F6847F022078F60CF6A47F45C
:1003E0000047CF624FF080473C6844F001043C6016
:1003F000D8F8007041F2873447F00207C8F800705F
:10040000C1F8102440F24442C4F2000242F8183C01
:1004100042F8105C42F80C5CD1F8003440F69F774B
:100420003343C1F80034D1F8003441F20046184398
:10043000C1F80004D1F80804C4F2000640F011002D
:10044000C1F80804D1F8080440F02200C1F80804FB
:10045000106840F400401060D1F8E80340F001005B
:10046000C1F8E803D8F8000040F02000C8F8000008
:10047000306820F00100306035617562B762F46267
:10048000306840F0010030603069C007FCD000F0F7
:1004900001F8E7E7F0B5342041F2580EC4F200004D
:1004A00000224FF47A71C4F2020E02604160DEF85D
:1004B000003041F2004143F02003C4F20001CEF8C5
:1004C00000300B6823F001030B600A614A6240F6BA
:1004D0009F728A6240F2E732CA620A6842F0010201
:1004E0000A6000BF0A69D207FCD0002202604260A5
:1004F000DEF8003043F02003CEF800300B6823F024
:1005000001030B600A614A6240F69F728A6240F200
:10051000E732CA620A6842F001020A600A69D20739
:10052000FCD040F2384CC4F2000C00224FF47A7335
:10053000C0F80024CCF80030DEF8003043F020038F
:10054000CEF800300B6823F001030B600A614A62A9
:1005500040F69F728A6240F2E732CA620A6842F04D
:1005600001020A600A69D207FCD00022C0F8002408
:10057000CCF80020DEF8003043F02003CEF8003045
:100580000B6823F001030B600A614A6240F69F7218
:100590008A6240F2E732CA620A6842F001020A60E7
:1005A0000A69D207FCD04FF47A72002302604360DC
:1005B000C0F80024CCF80030DEF8002042F0200221
:1005C000CEF800200A6822F001020A6040F69F720D
:1005D0000B614B628A6240F2E732CA620A6842F0FB
:1005E00001020A600A69D207FCD0002340F69F721C
:1005F000092440F2E935002603604360C0F8003466
:10060000CCF8003003604660C0F80034CCF80060DD
:10061000DEF8007047F02007CEF800700F6827F072
:1006200001070F600B614B628A62CC620F6847F072
:1006300001070F600F69FF07FCD00136AE42E1D120
:10064000DEF8002042F02002CEF800200A6822F0F6
:1006500001020A6000220A614A6240F69F728A62C1
:1006600040F2E732CA620A6842F001020A6000BF43
:100670000A69D207FCD0002101604160C0F8001473
:10068000CCF80010F0BDF1EE100A4FF6FF71C0F289
:10069000C03120EA010040F04070E1EE100A7047DE
:1006A000B00600080000002060060000F00100080D
:040000050800018965
:00000001FF
